:100000000C9463000C948B000C948B000C948B006C
:100010000C948B000C948B000C948B000C94380681
:100020000C948B000C948B000C948B000C948B0024
:100030000C948B000C948B000C948B000C948B0014
:100040000C942E020C948B000C9426070C946907D8
:100050000C948B000C948B000C948B000C948B00F4
:100060000C948B000C948B00000000070002010030
:100070000003040600000000000000000102040864
:100080001020408001020408102001020408102002
:10009000040404040404040402020202020203032E
:1000A00003030303000000002300260029000000D2
:1000B0000000250028002B0000000000240027007D
:1000C0002A000200250811241FBECFEFD8E0DEBFB2
:1000D000CDBF11E0A0E0B1E0ECEBF1E102C0059092
:1000E0000D92A631B107D9F721E0A6E1B1E001C038
:1000F0001D92AE3DB207E1F710E0C6ECD0E004C0BF
:100100002297FE010E94C908C43CD107C9F70E948A
:10011000EE030C94DC080C94000060E085E00E9483
:10012000960160E086E00E94960160E087E00E9410
:10013000960161E083E00E94960161E08DE00E94FB
:10014000960161E08CE00E94960161E08BE00E94E4
:10015000960140E855E260E070E084E391E00C94A1
:10016000A407EF92FF920F931F93CF93DF9385E045
:100170000E9405027C0186E00E9405028C0187E056
:100180000E940502EC0181E0E816F10411F461E03F
:1001900001C060E08DE00E94CF010130110511F433
:1001A00061E001C060E08CE00E94CF01C130D10568
:1001B00011F461E001C060E08BE00E94CF01E11426
:1001C000F10451F50115110591F4209731F420E067
:1001D00030E0A90166E071E04AC0C130D10509F004
:1001E00049C020E030E0A90166E271E040C0013082
:1001F000110509F03FC0209731F420E030E0A9015B
:100200006AE471E034C0C130D105A1F520E030E0EE
:10021000A9016DE571E02BC081E0E816F10451F50C
:100220000115110589F4209731F420E030E0A9018F
:1002300068E871E01CC0C130D105E1F420E030E095
:10024000A90160E773E013C00130110599F420970C
:1002500031F420E030E0A9016CED73E008C0C1305A
:10026000D10541F420E030E0A9016BE072E083E0C9
:100270000E94FB0364E670E080E090E00E949B0235
:100280004AE050E0B70184E391E00E94E603B80140
:10029000660F771F4AE050E084E391E00E94E60396
:1002A000BE01660F771F660F771F4AE050E084E3B8
:1002B00091E00E94E60361E071E084E391E00E9436
:1002C0003A0363E071E084E391E0DF91CF911F9105
:1002D0000F91FF90EF900C943A03833081F028F453
:1002E000813099F08230A1F008958630A9F08730EE
:1002F000B9F08430D1F4809180008F7D03C080916B
:1003000080008F7780938000089584B58F7702C036
:1003100084B58F7D84BD08958091B0008F7703C030
:100320008091B0008F7D8093B0000895CF93DF93CC
:1003300090E0FC01E458FF4F2491FC01E057FF4F8F
:100340008491882349F190E0880F991FFC01E854BB
:10035000FF4FA591B49182559F4FFC01C591D49157
:100360009FB7611108C0F8948C91209582238C93DB
:10037000888182230AC0623051F4F8948C91322F24
:10038000309583238C938881822B888304C0F894D2
:100390008C91822B8C939FBFDF91CF9108950F9307
:1003A0001F93CF93DF931F92CDB7DEB7282F30E096
:1003B000F901E859FF4F8491F901E458FF4F149176
:1003C000F901E057FF4F04910023C9F0882321F081
:1003D00069830E946D016981E02FF0E0EE0FFF1F3D
:1003E000E255FF4FA591B4919FB7F8948C9161119C
:1003F00003C01095812301C0812B8C939FBF0F9068
:10040000DF91CF911F910F910895CF93DF93282F04
:1004100030E0F901E859FF4F8491F901E458FF4FAA
:10042000D491F901E057FF4FC491CC2391F0811191
:100430000E946D01EC2FF0E0EE0FFF1FEC55FF4F17
:10044000A591B4912C912D2381E090E021F480E0DE
:1004500002C080E090E0DF91CF9108951F920F924B
:100460000FB60F9211242F933F938F939F93AF93C7
:10047000BF938091170190911801A0911901B0913B
:100480001A013091160123E0230F2D3720F4019635
:10049000A11DB11D05C026E8230F0296A11DB11DA7
:1004A000209316018093170190931801A0931901CE
:1004B000B0931A0180911B0190911C01A0911D0124
:1004C000B0911E010196A11DB11D80931B01909357
:1004D0001C01A0931D01B0931E01BF91AF919F918C
:1004E0008F913F912F910F900FBE0F901F901895F5
:1004F0003FB7F89480911B0190911C01A0911D01C0
:10050000B0911E0126B5A89B05C02F3F19F001969A
:10051000A11DB11D3FBF6627782F892F9A2F620F2B
:10052000711D811D911D42E0660F771F881F991F65
:100530004A95D1F70895CF92DF92EF92FF92CF9331
:10054000DF936B017C010E947802EB01C114D1049E
:10055000E104F10479F00E9478026C1B7D0B683E87
:100560007340A0F381E0C81AD108E108F108C8512E
:10057000DC4FECCFDF91CF91FF90EF90DF90CF90E9
:100580000895789484B5826084BD84B5816084BD0B
:1005900085B5826085BD85B5816085BDEEE6F0E0FC
:1005A000808181608083E1E8F0E010828081826058
:1005B0008083808181608083E0E8F0E080818160D9
:1005C0008083E1EBF0E0808184608083E0EBF0E009
:1005D000808181608083EAE7F0E0808184608083AD
:1005E0008081826080838081816080838081806857
:1005F00080831092C1000895CF92DF92EF92FF9214
:100600000F931F93CF93DF936C017A01EB01E60EFA
:10061000F71E00E010E0CE15DF0561F06991D6010C
:10062000ED91FC910190F081E02DC6010995080F34
:10063000191FF1CFC801DF91CF911F910F91FF904A
:10064000EF90DF90CF9008956115710581F0DB0187
:100650000D900020E9F7AD0141505109461B570BA1
:10066000DC01ED91FC910280F381E02D099480E0A2
:1006700090E008950C942403DC01ED91FC9101902D
:10068000F081E02D09948F929F92AF92BF92CF920A
:10069000DF92EF92FF920F931F93CF93DF93CDB72B
:1006A000DEB7A1970FB6F894DEBF0FBECDBF7C01B9
:1006B000C42EE52FCB01D22E19A221E02D1510F06A
:1006C0002AE0D22E8E010F5D1F4F8D2C912CA12C74
:1006D000B12C6C2D7E2FA50194010E947B088C2DDE
:1006E000D29E80191124015011098A3014F4805DC2
:1006F00001C0895CF8018083211531054105510550
:1007000021F0C22EE32FCA01E4CFB801C7010E9435
:100710002403A1960FB6F894DEBF0FBECDBFDF91C4
:10072000CF911F910F91FF90EF90DF90CF90BF90EE
:10073000AF909F908F900895CF92DF92EF92FF92AB
:100740000F931F93CF93DF93EC016A017B01211577
:10075000310579F4E881F9810190F081E02D642F71
:10076000DF91CF911F910F91FF90EF90DF90CF908D
:1007700009942A303105E9F477FF1AC06DE20E942E
:100780003C038C0144275527BA014C195D096E09B9
:100790007F092AE0CE010E944303800F911FDF9161
:1007A000CF911F910F91FF90EF90DF90CF90089520
:1007B0002AE0B701A601CE01DF91CF911F910F91E1
:1007C000FF90EF90DF90CF900C9443039A01AB0120
:1007D000662757FD6095762F0C949C030E94C102FA
:1007E0000E948D00C0E6D7E00E94B1002097E1F39F
:1007F0000E946007F9CF3F924F925F926F927F9273
:100800008F929F92AF92BF92CF92DF92EF92FF9220
:100810000F931F93CF93DF9300D000D0CDB7DEB7F7
:100820008B0129013A0190910001981721F09F3F17
:1008300009F0D3C104C0E2ECF0E0349081C08093B1
:100840000001E2ECF0E0E491EF3F09F4C6C1E130D1
:1008500031F1E23009F44BC0E11171C014BC15BC98
:1008600094B5926094BD95B5916095BD282F30E008
:10087000F901E057FF4FE491F0E0EE0FFF1FE25562
:10088000FF4F4591549150932F0140932E01F90150
:10089000E458FF4F249120932D01312C53C0109226
:1008A0008000109281009091810098609093810067
:1008B00090918100916090938100282F30E0F901A0
:1008C000E057FF4FE491F0E0EE0FFF1FE255FF4FBE
:1008D000459154915093280140932701F901E45820
:1008E000FF4F249120932601332433942BC0109280
:1008F000B0001092B1009091B00092609093B0005F
:100900009091B10091609093B100282F30E0F901EF
:10091000E057FF4FE491F0E0EE0FFF1FE255FF4F6D
:10092000459154915093210140932001F901E458DD
:10093000FF4F249120931F0152E0352E03C03E2E1D
:1009400037FC4BC161E00E9496014801A12CB12CFB
:10095000832D8D7F09F0C0C060E072E18AE790E0EE
:10096000A50194010E949D0829833A834B835C83EF
:1009700069017A0181E0C81AD108E108F1089FEF06
:10098000C916D104E104F10409F008F49AC060E446
:1009900072E48FE090E0A50194010E949D08690136
:1009A0007A01E1E0CE1AD108E108F108F2E03F1245
:1009B00019C08FEFC816D104E104F10409F008F45E
:1009C00087C060E970ED83E090E0A50194010E948A
:1009D0009D0869017A0191E0C91AD108E108F1087E
:1009E00083E001C082E0EFEFCE16D104E104F10410
:1009F00009F008F467C068E478EE81E090E0A501B2
:100A000094010E949D0869017A01F1E0CF1AD10892
:100A1000E108F1083320E1F082E038121BC09FEFBB
:100A2000C916D104E104F10409F008F4D4C064E269
:100A300074EF80E090E0A50194010E949D08690197
:100A40007A01E1E0CE1AD108E108F10885E003C09F
:100A500083E001C084E0FFEFCF16D104E104F1048C
:100A600089F180F162E17AE780E090E0A5019401EC
:100A70000E949D0869017A0181E0C81AD108E10845
:100A8000F108311002C084E001C086E09FEFC91672
:100A9000D104E104F104B1F0A8F0C980DA80EB8060
:100AA000FC809AE0F594E794D794C7949A95D1F78F
:100AB000E1E0CE1AD108E108F108332031F087E0F7
:100AC00008C081E0332011F004C085E085BD34C04A
:100AD00082E08093B10030C060E072E18AE790E08C
:100AE000A50194010E949D0869017A01F1E0CF1AE5
:100AF000D108E108F108C114D10481E0E806F1044D
:100B000088F068E478EE81E090E0A50194010E940D
:100B10009D0869017A0191E0C91AD108E108F1083C
:100B200093E001C091E0E1E03E1206C080918100B7
:100B3000887F892B809381004114510461047104E2
:100B400071F0D801AA0FBB1FA30192010E94BC083B
:100B500028EE33E040E050E00E947B0803C02FEF16
:100B60003FEFA901F1E03F16A1F082E0381619F13C
:100B7000311033C0C7BC2093300130933101409312
:100B800032015093330180916E00826080936E0039
:100B900024C0D0928900C09288002093290130930C
:100BA0002A0140932B0150932C0180916F008260A9
:100BB00080936F0012C0C092B30020932201309343
:100BC000230140932401509325018091700082609D
:100BD0008093700002C084E07CCF0F900F900F9044
:100BE0000F90DF91CF911F910F91FF90EF90DF90C9
:100BF000CF90BF90AF909F908F907F906F905F90BD
:100C00004F903F900895813039F018F0823051F0C4
:100C1000089510926E00089580916F008D7F8093EB
:100C20006F000895809170008D7F8093700081E047
:100C30008093B0008091B100887F84608093B10080
:100C40001092B3000895CF93C82F809100018C13A8
:100C500007C0E2ECF0E084919FEF9093000101C0A7
:100C60008FEF0E94030660E08C2FCF910C94CF0190
:100C70001F920F920FB60F9211242F933F934F9311
:100C80005F936F937F938F939F93AF93BF93EF93F4
:100C9000FF938091220190912301A0912401B091B2
:100CA0002501892B8A2B8B2B51F190911F01E0910B
:100CB0002001F09121018081892780838091220188
:100CC00090912301A0912401B091250118161906D5
:100CD0001A061B06C4F48091220190912301A09171
:100CE0002401B09125010197A109B1098093220146
:100CF00090932301A0932401B093250104C0809117
:100D000000010E942306FF91EF91BF91AF919F9147
:100D10008F917F916F915F914F913F912F910F90A4
:100D20000FBE0F901F901895FC0124853585F901A1
:100D3000E05CFF4F80819181329620813181821B5E
:100D4000930B8F7399270895FC0184859585FC0189
:100D5000E05CFF4F40815181329620813181421702
:100D6000530741F00190F081E02DE80FF91F8081D9
:100D700090E008958FEF9FEF0895FC01848595859D
:100D8000FC01E05CFF4F408151813296208131812E
:100D90004217530779F0A081B181A80FB91F8C9138
:100DA000208131812F5F3F4F2F7333273183208381
:100DB00090E008958FEF9FEF0895FC0181A18823B3
:100DC00029F0A489B5898C9186FFFBCF11A20895E3
:100DD000CF93DF93FC0126853785D901A05CBF4FF7
:100DE0008D919C91119701968F739927E901CE5BA4
:100DF000DF4F4881598184179507D9F30D90BC9135
:100E0000A02DA20FB31F6C93A685B785A05CBF4F22
:100E100011969C938E93A689B7892C9181E090E0DE
:100E2000078C02C0880F991F0A94E2F7282B2C9395
:100E300081E081A30488F589E02D8081806480832E
:100E400081E090E0DF91CF91089508951F920F9275
:100E50000FB60F9211242F933F934F938F939F932D
:100E6000EF93FF938091C00082FD1CC04091C600AB
:100E70008091DA019091DB0101968F73992720917F
:100E8000DC013091DD018217930771F0E091DA0106
:100E9000F091DB01E656FE4F40839093DB01809397
:100EA000DA0102C08091C600FF91EF919F918F916E
:100EB0004F913F912F910F900FBE0F901F9018955B
:100EC00084E391E00E949406892B11F00C9425078D
:100ED00008951F920F920FB60F9211242F933F93F4
:100EE0008F939F93EF93FF932091960130919701F9
:100EF00080919801909199012817390731F48091D8
:100F0000C1008F7D8093C10014C0E0919801F091E1
:100F10009901EA5AFE4F20818091980190919901A0
:100F200001968F739927909399018093980120934C
:100F3000C600FF91EF919F918F913F912F910F905C
:100F40000FBE0F901F901895CF92DF92EF92FF92F5
:100F5000CF93DF93EC016A017B01411581EE5807C5
:100F600061057105F9F0EC89FD8981E090E008A048
:100F700002C0880F991F0A94E2F7808360E079E04D
:100F80008DE390E0A70196010E947B082150310972
:100F9000410951095695479537952795211580E1C7
:100FA000380798F0EC89FD89108260E874E88EE1DA
:100FB00090E0A70196010E947B0821503109410968
:100FC00051095695479537952795E889F9893083D2
:100FD000EA89FB89208319A2EE89FF89408181E09B
:100FE00090E09C010C8C02C0220F331F0A94E2F7A0
:100FF000422B4083EE89FF8940819C010D8C02C009
:10100000220F331F0A94E2F7422B4083EE89FF89B7
:1010100040819C010E8C02C0220F331F0A94E2F71C
:10102000422B4083EE89FF8920810F8C02C0880FFC
:10103000991F0A94E2F7809582238083DF91CF91F4
:10104000FF90EF90DF90CF900895109237011092AB
:10105000360188EE93E0A0E0B0E0809338019093F1
:101060003901A0933A01B0933B0189E091E090935C
:101070003501809334018AE991E090934101809396
:10108000400186E591E0909343018093420185EC15
:1010900090E0909345018093440184EC90E090931C
:1010A00047018093460180EC90E090934901809342
:1010B000480181EC90E090934B0180934A0182ECCF
:1010C00090E090934D0180934C0186EC90E09093DA
:1010D0004F0180934E0184E08093500183E0809320
:1010E000510187E08093520185E08093530181E0B4
:1010F000809354010895A1E21A2EAA1BBB1BFD0187
:101100000DC0AA1FBB1FEE1FFF1FA217B307E407E6
:10111000F50720F0A21BB30BE40BF50B661F771F3E
:10112000881F991F1A9469F760957095809590951E
:101130009B01AC01BD01CF010895052E97FB1EF464
:1011400000940E94B40857FD07D00E947B0807FC5A
:1011500003D04EF40C94B4085095409530952195E9
:101160003F4F4F4F5F4F08959095809570956195D3
:101170007F4F8F4F9F4F08950E94CD08A59F900DE0
:10118000B49F900DA49F800D911D11240895EE0F22
:10119000FF1F0590F491E02D0994A29FB001B39F29
:1011A000C001A39F700D811D1124911DB29F700D70
:0C11B000811D1124911D0895F894FFCFBB
:1011BC00FF20000A0000000000E806FC029406BDB7
:0611CC0006A406DD06008A
:00000001FF
